{
  "_format": "hh-sol-artifact-1",
  "contractName": "Keepr",
  "sourceName": "contracts/Keepr.sol",
  "abi": [
    {
      "inputs": [],
      "stateMutability": "nonpayable",
      "type": "constructor"
    },
    {
      "inputs": [],
      "name": "EnforcedPause",
      "type": "error"
    },
    {
      "inputs": [],
      "name": "ExpectedPause",
      "type": "error"
    },
    {
      "inputs": [
        {
          "internalType": "address",
          "name": "owner",
          "type": "address"
        }
      ],
      "name": "OwnableInvalidOwner",
      "type": "error"
    },
    {
      "inputs": [
        {
          "internalType": "address",
          "name": "account",
          "type": "address"
        }
      ],
      "name": "OwnableUnauthorizedAccount",
      "type": "error"
    },
    {
      "inputs": [],
      "name": "ReentrancyGuardReentrantCall",
      "type": "error"
    },
    {
      "anonymous": false,
      "inputs": [
        {
          "indexed": true,
          "internalType": "uint256",
          "name": "keepId",
          "type": "uint256"
        },
        {
          "indexed": true,
          "internalType": "address",
          "name": "fallbackRecipient",
          "type": "address"
        },
        {
          "indexed": false,
          "internalType": "uint256",
          "name": "activatedAt",
          "type": "uint256"
        }
      ],
      "name": "FallbackActivated",
      "type": "event"
    },
    {
      "anonymous": false,
      "inputs": [
        {
          "indexed": true,
          "internalType": "uint256",
          "name": "keepId",
          "type": "uint256"
        },
        {
          "indexed": true,
          "internalType": "address",
          "name": "creator",
          "type": "address"
        },
        {
          "indexed": false,
          "internalType": "uint256",
          "name": "cancelledAt",
          "type": "uint256"
        }
      ],
      "name": "KeepCancelled",
      "type": "event"
    },
    {
      "anonymous": false,
      "inputs": [
        {
          "indexed": true,
          "internalType": "uint256",
          "name": "keepId",
          "type": "uint256"
        },
        {
          "indexed": true,
          "internalType": "address",
          "name": "recipient",
          "type": "address"
        },
        {
          "indexed": false,
          "internalType": "uint256",
          "name": "claimedAt",
          "type": "uint256"
        }
      ],
      "name": "KeepClaimed",
      "type": "event"
    },
    {
      "anonymous": false,
      "inputs": [
        {
          "indexed": true,
          "internalType": "uint256",
          "name": "keepId",
          "type": "uint256"
        },
        {
          "indexed": true,
          "internalType": "address",
          "name": "creator",
          "type": "address"
        },
        {
          "indexed": true,
          "internalType": "address",
          "name": "recipient",
          "type": "address"
        },
        {
          "indexed": false,
          "internalType": "string",
          "name": "ipfsHash",
          "type": "string"
        },
        {
          "indexed": false,
          "internalType": "uint256",
          "name": "unlockTime",
          "type": "uint256"
        },
        {
          "indexed": false,
          "internalType": "enum Keepr.KeepType",
          "name": "keepType",
          "type": "uint8"
        }
      ],
      "name": "KeepCreated",
      "type": "event"
    },
    {
      "anonymous": false,
      "inputs": [
        {
          "indexed": true,
          "internalType": "address",
          "name": "previousOwner",
          "type": "address"
        },
        {
          "indexed": true,
          "internalType": "address",
          "name": "newOwner",
          "type": "address"
        }
      ],
      "name": "OwnershipTransferred",
      "type": "event"
    },
    {
      "anonymous": false,
      "inputs": [
        {
          "indexed": false,
          "internalType": "address",
          "name": "account",
          "type": "address"
        }
      ],
      "name": "Paused",
      "type": "event"
    },
    {
      "anonymous": false,
      "inputs": [
        {
          "indexed": true,
          "internalType": "uint256",
          "name": "keepId",
          "type": "uint256"
        },
        {
          "indexed": true,
          "internalType": "address",
          "name": "oldRecipient",
          "type": "address"
        },
        {
          "indexed": true,
          "internalType": "address",
          "name": "newRecipient",
          "type": "address"
        }
      ],
      "name": "RecipientChanged",
      "type": "event"
    },
    {
      "anonymous": false,
      "inputs": [
        {
          "indexed": false,
          "internalType": "address",
          "name": "account",
          "type": "address"
        }
      ],
      "name": "Unpaused",
      "type": "event"
    },
    {
      "inputs": [
        {
          "internalType": "uint256",
          "name": "keepId",
          "type": "uint256"
        }
      ],
      "name": "activateFallback",
      "outputs": [],
      "stateMutability": "nonpayable",
      "type": "function"
    },
    {
      "inputs": [
        {
          "internalType": "uint256",
          "name": "keepId",
          "type": "uint256"
        }
      ],
      "name": "canActivateFallback",
      "outputs": [
        {
          "internalType": "bool",
          "name": "",
          "type": "bool"
        }
      ],
      "stateMutability": "view",
      "type": "function"
    },
    {
      "inputs": [
        {
          "internalType": "uint256",
          "name": "keepId",
          "type": "uint256"
        }
      ],
      "name": "cancelKeep",
      "outputs": [],
      "stateMutability": "nonpayable",
      "type": "function"
    },
    {
      "inputs": [
        {
          "internalType": "uint256",
          "name": "keepId",
          "type": "uint256"
        },
        {
          "internalType": "address",
          "name": "newRecipient",
          "type": "address"
        }
      ],
      "name": "changeRecipient",
      "outputs": [],
      "stateMutability": "nonpayable",
      "type": "function"
    },
    {
      "inputs": [
        {
          "internalType": "uint256",
          "name": "keepId",
          "type": "uint256"
        }
      ],
      "name": "claimKeep",
      "outputs": [],
      "stateMutability": "nonpayable",
      "type": "function"
    },
    {
      "inputs": [],
      "name": "claimWindow",
      "outputs": [
        {
          "internalType": "uint256",
          "name": "",
          "type": "uint256"
        }
      ],
      "stateMutability": "view",
      "type": "function"
    },
    {
      "inputs": [
        {
          "internalType": "address",
          "name": "recipient",
          "type": "address"
        },
        {
          "internalType": "address",
          "name": "fallbackRecipient",
          "type": "address"
        },
        {
          "internalType": "string",
          "name": "ipfsHash",
          "type": "string"
        },
        {
          "internalType": "uint256",
          "name": "unlockTime",
          "type": "uint256"
        },
        {
          "components": [
            {
              "internalType": "string",
              "name": "title",
              "type": "string"
            },
            {
              "internalType": "string",
              "name": "description",
              "type": "string"
            },
            {
              "internalType": "enum Keepr.KeepType",
              "name": "keepType",
              "type": "uint8"
            },
            {
              "internalType": "uint256",
              "name": "unlockTime",
              "type": "uint256"
            },
            {
              "internalType": "string",
              "name": "recipientEmail",
              "type": "string"
            },
            {
              "internalType": "string",
              "name": "fallbackEmail",
              "type": "string"
            }
          ],
          "internalType": "struct Keepr.KeepMetadata",
          "name": "metadata",
          "type": "tuple"
        }
      ],
      "name": "createKeep",
      "outputs": [],
      "stateMutability": "payable",
      "type": "function"
    },
    {
      "inputs": [
        {
          "internalType": "uint256",
          "name": "keepId",
          "type": "uint256"
        }
      ],
      "name": "emergencyCancelKeep",
      "outputs": [],
      "stateMutability": "nonpayable",
      "type": "function"
    },
    {
      "inputs": [
        {
          "internalType": "uint256",
          "name": "keepId",
          "type": "uint256"
        }
      ],
      "name": "getKeep",
      "outputs": [
        {
          "components": [
            {
              "internalType": "uint256",
              "name": "id",
              "type": "uint256"
            },
            {
              "internalType": "address",
              "name": "creator",
              "type": "address"
            },
            {
              "internalType": "address",
              "name": "recipient",
              "type": "address"
            },
            {
              "internalType": "address",
              "name": "fallbackRecipient",
              "type": "address"
            },
            {
              "internalType": "string",
              "name": "ipfsHash",
              "type": "string"
            },
            {
              "internalType": "uint256",
              "name": "unlockTime",
              "type": "uint256"
            },
            {
              "internalType": "uint256",
              "name": "createdAt",
              "type": "uint256"
            },
            {
              "internalType": "enum Keepr.KeepStatus",
              "name": "status",
              "type": "uint8"
            },
            {
              "internalType": "enum Keepr.KeepType",
              "name": "keepType",
              "type": "uint8"
            },
            {
              "internalType": "string",
              "name": "title",
              "type": "string"
            },
            {
              "internalType": "string",
              "name": "description",
              "type": "string"
            }
          ],
          "internalType": "struct Keepr.Keep",
          "name": "",
          "type": "tuple"
        }
      ],
      "stateMutability": "view",
      "type": "function"
    },
    {
      "inputs": [
        {
          "internalType": "address",
          "name": "user",
          "type": "address"
        }
      ],
      "name": "getKeepsByCreator",
      "outputs": [
        {
          "internalType": "uint256[]",
          "name": "",
          "type": "uint256[]"
        }
      ],
      "stateMutability": "view",
      "type": "function"
    },
    {
      "inputs": [
        {
          "internalType": "address",
          "name": "user",
          "type": "address"
        }
      ],
      "name": "getKeepsByRecipient",
      "outputs": [
        {
          "internalType": "uint256[]",
          "name": "",
          "type": "uint256[]"
        }
      ],
      "stateMutability": "view",
      "type": "function"
    },
    {
      "inputs": [],
      "name": "getTotalKeeps",
      "outputs": [
        {
          "internalType": "uint256",
          "name": "",
          "type": "uint256"
        }
      ],
      "stateMutability": "view",
      "type": "function"
    },
    {
      "inputs": [
        {
          "internalType": "uint256",
          "name": "",
          "type": "uint256"
        }
      ],
      "name": "keeps",
      "outputs": [
        {
          "internalType": "uint256",
          "name": "id",
          "type": "uint256"
        },
        {
          "internalType": "address",
          "name": "creator",
          "type": "address"
        },
        {
          "internalType": "address",
          "name": "recipient",
          "type": "address"
        },
        {
          "internalType": "address",
          "name": "fallbackRecipient",
          "type": "address"
        },
        {
          "internalType": "string",
          "name": "ipfsHash",
          "type": "string"
        },
        {
          "internalType": "uint256",
          "name": "unlockTime",
          "type": "uint256"
        },
        {
          "internalType": "uint256",
          "name": "createdAt",
          "type": "uint256"
        },
        {
          "internalType": "enum Keepr.KeepStatus",
          "name": "status",
          "type": "uint8"
        },
        {
          "internalType": "enum Keepr.KeepType",
          "name": "keepType",
          "type": "uint8"
        },
        {
          "internalType": "string",
          "name": "title",
          "type": "string"
        },
        {
          "internalType": "string",
          "name": "description",
          "type": "string"
        }
      ],
      "stateMutability": "view",
      "type": "function"
    },
    {
      "inputs": [],
      "name": "maxUnlockDelay",
      "outputs": [
        {
          "internalType": "uint256",
          "name": "",
          "type": "uint256"
        }
      ],
      "stateMutability": "view",
      "type": "function"
    },
    {
      "inputs": [],
      "name": "minUnlockDelay",
      "outputs": [
        {
          "internalType": "uint256",
          "name": "",
          "type": "uint256"
        }
      ],
      "stateMutability": "view",
      "type": "function"
    },
    {
      "inputs": [],
      "name": "owner",
      "outputs": [
        {
          "internalType": "address",
          "name": "",
          "type": "address"
        }
      ],
      "stateMutability": "view",
      "type": "function"
    },
    {
      "inputs": [],
      "name": "pause",
      "outputs": [],
      "stateMutability": "nonpayable",
      "type": "function"
    },
    {
      "inputs": [],
      "name": "paused",
      "outputs": [
        {
          "internalType": "bool",
          "name": "",
          "type": "bool"
        }
      ],
      "stateMutability": "view",
      "type": "function"
    },
    {
      "inputs": [],
      "name": "platformFee",
      "outputs": [
        {
          "internalType": "uint256",
          "name": "",
          "type": "uint256"
        }
      ],
      "stateMutability": "view",
      "type": "function"
    },
    {
      "inputs": [
        {
          "internalType": "address",
          "name": "",
          "type": "address"
        },
        {
          "internalType": "uint256",
          "name": "",
          "type": "uint256"
        }
      ],
      "name": "recipientKeeps",
      "outputs": [
        {
          "internalType": "uint256",
          "name": "",
          "type": "uint256"
        }
      ],
      "stateMutability": "view",
      "type": "function"
    },
    {
      "inputs": [],
      "name": "renounceOwnership",
      "outputs": [],
      "stateMutability": "nonpayable",
      "type": "function"
    },
    {
      "inputs": [
        {
          "internalType": "uint256",
          "name": "_claimWindow",
          "type": "uint256"
        }
      ],
      "name": "setClaimWindow",
      "outputs": [],
      "stateMutability": "nonpayable",
      "type": "function"
    },
    {
      "inputs": [
        {
          "internalType": "uint256",
          "name": "_maxDelay",
          "type": "uint256"
        }
      ],
      "name": "setMaxUnlockDelay",
      "outputs": [],
      "stateMutability": "nonpayable",
      "type": "function"
    },
    {
      "inputs": [
        {
          "internalType": "uint256",
          "name": "_minDelay",
          "type": "uint256"
        }
      ],
      "name": "setMinUnlockDelay",
      "outputs": [],
      "stateMutability": "nonpayable",
      "type": "function"
    },
    {
      "inputs": [
        {
          "internalType": "uint256",
          "name": "_fee",
          "type": "uint256"
        }
      ],
      "name": "setPlatformFee",
      "outputs": [],
      "stateMutability": "nonpayable",
      "type": "function"
    },
    {
      "inputs": [
        {
          "internalType": "address",
          "name": "newOwner",
          "type": "address"
        }
      ],
      "name": "transferOwnership",
      "outputs": [],
      "stateMutability": "nonpayable",
      "type": "function"
    },
    {
      "inputs": [],
      "name": "unpause",
      "outputs": [],
      "stateMutability": "nonpayable",
      "type": "function"
    },
    {
      "inputs": [
        {
          "internalType": "address",
          "name": "",
          "type": "address"
        },
        {
          "internalType": "uint256",
          "name": "",
          "type": "uint256"
        }
      ],
      "name": "userKeeps",
      "outputs": [
        {
          "internalType": "uint256",
          "name": "",
          "type": "uint256"
        }
      ],
      "stateMutability": "view",
      "type": "function"
    },
    {
      "inputs": [],
      "name": "withdrawFees",
      "outputs": [],
      "stateMutability": "nonpayable",
      "type": "function"
    },
    {
      "stateMutability": "payable",
      "type": "receive"
    }
  ],
  "bytecode": "0x60806040526001600255620151806006556301e1338060075562278d0060085566038d7ea4c6800060095534801561003657600080fd5b506001600055338061006257604051631e4fbdf760e01b81526000600482015260240160405180910390fd5b61006b81610071565b506100cb565b600180546001600160a01b03838116610100818102610100600160a81b031985161790945560405193909204169182907f8be0079c531659141344cd1fd0a4f28419497f9722a3daafe3b4186f6b6457e090600090a35050565b61249d806100da6000396000f3fe6080604052600436106101c65760003560e01c8063715018a6116100f7578063aee48bd011610095578063ec0cbe3311610064578063ec0cbe33146104ee578063eeb58fa21461050e578063f2fde38b1461052e578063fbcbfa2d1461054e57600080fd5b8063aee48bd014610478578063bb0e24ed14610498578063bf4bdda4146104b8578063c5d37ae1146104d857600080fd5b80638da5cb5b116100d15780638da5cb5b146103f75780639549e64c1461042d578063a6cb1c0814610443578063aa6c3c4e1461045857600080fd5b8063715018a6146103965780638456cb59146103ab5780638701af42146103c057600080fd5b80633f4ba83a11610164578063476343ee1161013e578063476343ee146103295780635c975abb1461033e5780636c7f6fac146103565780636e1d4d8e1461037657600080fd5b80633f4ba83a146102ce57806342f427b1146102e3578063440b59cb1461031357600080fd5b806312e8e2c3116101a057806312e8e2c31461024b5780631d03eab01461026b5780631de6b0e91461028b57806326232a2e146102b857600080fd5b806304952631146101d257806307826e4d1461020857806309b5eea41461023657600080fd5b366101cd57005b600080fd5b3480156101de57600080fd5b506101f26101ed366004611d5d565b61056e565b6040516101ff9190611dfd565b60405180910390f35b34801561021457600080fd5b50610228610223366004611f0b565b61085a565b6040519081526020016101ff565b610249610244366004611f4d565b61088b565b005b34801561025757600080fd5b50610249610266366004611d5d565b610dd4565b34801561027757600080fd5b50610249610286366004611d5d565b610de1565b34801561029757600080fd5b506102ab6102a636600461200e565b610f22565b6040516101ff9190612029565b3480156102c457600080fd5b5061022860095481565b3480156102da57600080fd5b50610249610f8e565b3480156102ef57600080fd5b506103036102fe366004611d5d565b610fa0565b60405190151581526020016101ff565b34801561031f57600080fd5b5061022860065481565b34801561033557600080fd5b50610249611005565b34801561034a57600080fd5b5060015460ff16610303565b34801561036257600080fd5b50610249610371366004611d5d565b6110f1565b34801561038257600080fd5b5061024961039136600461206d565b611296565b3480156103a257600080fd5b506102496114ce565b3480156103b757600080fd5b506102496114e0565b3480156103cc57600080fd5b506103e06103db366004611d5d565b6114f0565b6040516101ff9b9a99989796959493929190612099565b34801561040357600080fd5b5060015461010090046001600160a01b03166040516001600160a01b0390911681526020016101ff565b34801561043957600080fd5b5061022860075481565b34801561044f57600080fd5b506102286116f8565b34801561046457600080fd5b506102ab61047336600461200e565b61170e565b34801561048457600080fd5b50610249610493366004611d5d565b611778565b3480156104a457600080fd5b506102496104b3366004611d5d565b611785565b3480156104c457600080fd5b506102496104d3366004611d5d565b611a00565b3480156104e457600080fd5b5061022860085481565b3480156104fa57600080fd5b50610228610509366004611f0b565b611aa5565b34801561051a57600080fd5b50610249610529366004611d5d565b611ac1565b34801561053a57600080fd5b5061024961054936600461200e565b611ace565b34801561055a57600080fd5b50610249610569366004611d5d565b611b09565b6105ca60408051610160810182526000808252602082018190529181018290526060808201839052608082015260a0810182905260c081018290529060e082019081526020016000815260200160608152602001606081525090565b6000828152600360208181526040928390208351610160810185528154815260018201546001600160a01b039081169382019390935260028201548316948101949094529182015416606083015260048101805460808401919061062d9061213b565b80601f01602080910402602001604051908101604052809291908181526020018280546106599061213b565b80156106a65780601f1061067b576101008083540402835291602001916106a6565b820191906000526020600020905b81548152906001019060200180831161068957829003601f168201915b50505091835250506005820154602082015260068201546040820152600782015460609091019060ff1660038111156106e1576106e1611dbc565b60038111156106f2576106f2611dbc565b81526020016007820160019054906101000a900460ff16600381111561071a5761071a611dbc565b600381111561072b5761072b611dbc565b815260200160088201805461073f9061213b565b80601f016020809104026020016040519081016040528092919081815260200182805461076b9061213b565b80156107b85780601f1061078d576101008083540402835291602001916107b8565b820191906000526020600020905b81548152906001019060200180831161079b57829003601f168201915b505050505081526020016009820180546107d19061213b565b80601f01602080910402602001604051908101604052809291908181526020018280546107fd9061213b565b801561084a5780601f1061081f5761010080835404028352916020019161084a565b820191906000526020600020905b81548152906001019060200180831161082d57829003601f168201915b5050505050815250509050919050565b6005602052816000526040600020818154811061087657600080fd5b90600052602060002001600091509150505481565b610893611b16565b61089b611b40565b6001600160a01b0386166108f25760405162461bcd60e51b8152602060048201526019602482015278496e76616c696420726563697069656e74206164647265737360381b60448201526064015b60405180910390fd5b336001600160a01b0387160361094a5760405162461bcd60e51b815260206004820152601f60248201527f43616e6e6f7420637265617465206b65657020666f7220796f757273656c660060448201526064016108e9565b8261098c5760405162461bcd60e51b815260206004820152601260248201527112541194c81a185cda081c995c5d5a5c995960721b60448201526064016108e9565b6006546109999042612185565b82116109de5760405162461bcd60e51b81526020600482015260146024820152732ab73637b1b5903a34b6b2903a37b79039b7b7b760611b60448201526064016108e9565b6007546109eb9042612185565b821115610a305760405162461bcd60e51b81526020600482015260136024820152722ab73637b1b5903a34b6b2903a37b7903330b960691b60448201526064016108e9565b600954341015610a825760405162461bcd60e51b815260206004820152601960248201527f496e73756666696369656e7420706c6174666f726d206665650000000000000060448201526064016108e9565b600280549081906000610a948361219e565b9190505550604051806101600160405280828152602001336001600160a01b03168152602001886001600160a01b03168152602001876001600160a01b0316815260200186868080601f0160208091040260200160405190810160405280939291908181526020018383808284376000920182905250938552505050602082018690524260408301526060909101908152602001610b3860608501604086016121b7565b6003811115610b4957610b49611dbc565b8152602001610b5884806121d8565b8080601f016020809104026020016040519081016040528093929190818152602001838380828437600092019190915250505090825250602090810190610ba1908501856121d8565b8080601f01602080910402602001604051908101604052809392919081815260200183838082843760009201829052509390945250508381526003602081815260409283902085518155908501516001820180546001600160a01b03199081166001600160a01b03938416179091559386015160028301805486169183169190911790556060860151928201805490941692169190911790915560808301519091506004820190610c529082612282565b5060a0820151600582015560c0820151600682015560e082015160078201805460ff19166001836003811115610c8a57610c8a611dbc565b0217905550610100828101516007830180549192909161ff00191690836003811115610cb857610cb8611dbc565b02179055506101208201516008820190610cd29082612282565b506101408201516009820190610ce89082612282565b5050336000908152600460209081526040808320805460018181018355918552838520018690556001600160a01b038c811685526005845291842080549182018155845291909220018390558716159050610d69576001600160a01b0386166000908152600560209081526040822080546001810182559083529120018190555b6001600160a01b03871633827f8309467311a57d1cc807ad82c1800d5aabdf9a84dfa6173a6724fb5838a54d52888888610da960608a0160408b016121b7565b604051610db99493929190612342565b60405180910390a450610dcc6001600055565b505050505050565b610ddc611b64565b600955565b610de9611b16565b60008181526003602052604090206001015481906001600160a01b03163314610e245760405162461bcd60e51b81526004016108e99061238b565b816000808281526003602081905260409091206007015460ff1690811115610e4e57610e4e611dbc565b14610e6b5760405162461bcd60e51b81526004016108e9906123cf565b600083815260036020526040902060058101544210610ecc5760405162461bcd60e51b815260206004820152601f60248201527f43616e6e6f742063616e63656c20616674657220756e6c6f636b2074696d650060448201526064016108e9565b60078101805460ff19166002179055604051428152339085907f1f627ec92c43d9cc533bb9f336db3f4e91daa44b2ca5cbea31ca97fc4647e0389060200160405180910390a3505050610f1f6001600055565b50565b6001600160a01b038116600090815260056020908152604091829020805483518184028101840190945280845260609392830182828015610f8257602002820191906000526020600020905b815481526020019060010190808311610f6e575b50505050509050919050565b610f96611b64565b610f9e611b97565b565b600081815260036020526040812081600782015460ff166003811115610fc857610fc8611dbc565b148015610fe657506008548160050154610fe29190612185565b4210155b8015610ffe575060038101546001600160a01b031615155b9392505050565b61100d611b64565b47806110515760405162461bcd60e51b81526020600482015260136024820152724e6f206665657320746f20776974686472617760681b60448201526064016108e9565b60015460405160009161010090046001600160a01b03169083908381818185875af1925050503d80600081146110a3576040519150601f19603f3d011682016040523d82523d6000602084013e6110a8565b606091505b50509050806110ed5760405162461bcd60e51b815260206004820152601160248201527015da5d1a191c985dd85b0819985a5b1959607a1b60448201526064016108e9565b5050565b6110f9611b16565b60008181526003602052604090206001015481906001600160a01b03166111325760405162461bcd60e51b81526004016108e9906123fb565b816000808281526003602081905260409091206007015460ff169081111561115c5761115c611dbc565b146111795760405162461bcd60e51b81526004016108e9906123cf565b60008381526003602052604090206005015483904210156111d75760405162461bcd60e51b815260206004820152601860248201527712d9595c081a5cc81b9bdd081e595d081d5b9b1bd8dad95960421b60448201526064016108e9565b600084815260036020526040902060028101546001600160a01b031633146112415760405162461bcd60e51b815260206004820181905260248201527f4f6e6c79207072696d61727920726563697069656e742063616e20636c61696d60448201526064016108e9565b60078101805460ff19166001179055604051428152339086907fa3dea7a0f6fb439d6e44f698dc12c4f34c62df3866e630f31115d832b1c330a5906020015b60405180910390a350505050610f1f6001600055565b61129e611b16565b60008281526003602052604090206001015482906001600160a01b031633146112d95760405162461bcd60e51b81526004016108e99061238b565b826000808281526003602081905260409091206007015460ff169081111561130357611303611dbc565b146113205760405162461bcd60e51b81526004016108e9906123cf565b6000848152600360205260409020600581015442106113815760405162461bcd60e51b815260206004820152601f60248201527f43616e6e6f74206368616e676520616674657220756e6c6f636b2074696d650060448201526064016108e9565b6001600160a01b0384166113d35760405162461bcd60e51b8152602060048201526019602482015278496e76616c696420726563697069656e74206164647265737360381b60448201526064016108e9565b60028101546001600160a01b039081169085160361142c5760405162461bcd60e51b815260206004820152601660248201527553616d6520726563697069656e74206164647265737360501b60448201526064016108e9565b6002810180546001600160a01b038681166001600160a01b03198316179092551660008181526005602052604090206114659087611be9565b6001600160a01b03808616600081815260056020908152604080832080546001810182559084529183209091018a905551919284169189917f22549aaf74cccb45564e805a2c6b3e92c0d23e852d6be2b2d735831a3ad9dd5591a4505050506110ed6001600055565b6114d6611b64565b610f9e6000611ca5565b6114e8611b64565b610f9e611cff565b60036020819052600091825260409091208054600182015460028301549383015460048401805493956001600160a01b03938416959084169493909216926115379061213b565b80601f01602080910402602001604051908101604052809291908181526020018280546115639061213b565b80156115b05780601f10611585576101008083540402835291602001916115b0565b820191906000526020600020905b81548152906001019060200180831161159357829003601f168201915b505050506005830154600684015460078501546008860180549596939592945060ff8083169461010090930416926115e79061213b565b80601f01602080910402602001604051908101604052809291908181526020018280546116139061213b565b80156116605780601f1061163557610100808354040283529160200191611660565b820191906000526020600020905b81548152906001019060200180831161164357829003601f168201915b5050505050908060090180546116759061213b565b80601f01602080910402602001604051908101604052809291908181526020018280546116a19061213b565b80156116ee5780601f106116c3576101008083540402835291602001916116ee565b820191906000526020600020905b8154815290600101906020018083116116d157829003601f168201915b505050505090508b565b600060016002546117099190612428565b905090565b6001600160a01b038116600090815260046020908152604091829020805483518184028101840190945280845260609392830182828015610f825760200282019190600052602060002090815481526020019060010190808311610f6e5750505050509050919050565b611780611b64565b600655565b61178d611b16565b60008181526003602052604090206001015481906001600160a01b03166117c65760405162461bcd60e51b81526004016108e9906123fb565b816000808281526003602081905260409091206007015460ff16908111156117f0576117f0611dbc565b1461180d5760405162461bcd60e51b81526004016108e9906123cf565b600083815260036020526040902060050154839042101561186b5760405162461bcd60e51b815260206004820152601860248201527712d9595c081a5cc81b9bdd081e595d081d5b9b1bd8dad95960421b60448201526064016108e9565b6000848152600360208190526040909120908101546001600160a01b031633146118e35760405162461bcd60e51b8152602060048201526024808201527f4f6e6c792066616c6c6261636b20726563697069656e742063616e20616374696044820152637661746560e01b60648201526084016108e9565b60028101546001600160a01b031661194b5760405162461bcd60e51b815260206004820152602560248201527f4e6f207072696d61727920726563697069656e7420746f2066616c6c6261636b6044820152642066726f6d60d81b60648201526084016108e9565b600854816005015461195d9190612185565b42116119bd5760405162461bcd60e51b815260206004820152602960248201527f5072696d61727920726563697069656e74207374696c6c206861732074696d6560448201526820746f20636c61696d60b81b60648201526084016108e9565b60078101805460ff19166001179055604051428152339086907faab10c4830a08c5858487d38cfbb25b1d9dd85a3d4f41b28020553375c1730a790602001611280565b611a08611b64565b6000818152600360205260409020600101546001600160a01b0316611a3f5760405162461bcd60e51b81526004016108e9906123fb565b60008181526003602090815260409182902060078101805460ff191660021790556001015491514281526001600160a01b039092169183917f1f627ec92c43d9cc533bb9f336db3f4e91daa44b2ca5cbea31ca97fc4647e038910160405180910390a350565b6004602052816000526040600020818154811061087657600080fd5b611ac9611b64565b600855565b611ad6611b64565b6001600160a01b038116611b0057604051631e4fbdf760e01b8152600060048201526024016108e9565b610f1f81611ca5565b611b11611b64565b600755565b600260005403611b3957604051633ee5aeb560e01b815260040160405180910390fd5b6002600055565b60015460ff1615610f9e5760405163d93c066560e01b815260040160405180910390fd5b6001546001600160a01b03610100909104163314610f9e5760405163118cdaa760e01b81523360048201526024016108e9565b611b9f611d3a565b6001805460ff191690557f5db9ee0a495bf2e6ff9c91a7834c1ba4fdd244a5e8aa4e537bd38aeae4b073aa335b6040516001600160a01b03909116815260200160405180910390a1565b60005b8254811015611ca05781838281548110611c0857611c0861243b565b906000526020600020015403611c8e5782548390611c2890600190612428565b81548110611c3857611c3861243b565b9060005260206000200154838281548110611c5557611c5561243b565b906000526020600020018190555082805480611c7357611c73612451565b60019003818190600052602060002001600090559055505050565b80611c988161219e565b915050611bec565b505050565b600180546001600160a01b03838116610100818102610100600160a81b031985161790945560405193909204169182907f8be0079c531659141344cd1fd0a4f28419497f9722a3daafe3b4186f6b6457e090600090a35050565b611d07611b40565b6001805460ff1916811790557f62e78cea01bee320cd4e420270b5ea74000d11b0c9f74754ebdbfc544b05a25833611bcc565b60015460ff16610f9e57604051638dfc202b60e01b815260040160405180910390fd5b600060208284031215611d6f57600080fd5b5035919050565b6000815180845260005b81811015611d9c57602081850181015186830182015201611d80565b506000602082860101526020601f19601f83011685010191505092915050565b634e487b7160e01b600052602160045260246000fd5b60048110610f1f57634e487b7160e01b600052602160045260246000fd5b611df981611dd2565b9052565b602081528151602082015260006020830151611e2460408401826001600160a01b03169052565b5060408301516001600160a01b03811660608401525060608301516001600160a01b03811660808401525060808301516101608060a0850152611e6b610180850183611d76565b915060a085015160c085015260c085015160e085015260e0850151610100611e9581870183611df0565b8601519050610120611ea986820183611df0565b80870151915050601f19610140818786030181880152611ec98584611d76565b908801518782039092018488015293509050611ee58382611d76565b9695505050505050565b80356001600160a01b0381168114611f0657600080fd5b919050565b60008060408385031215611f1e57600080fd5b611f2783611eef565b946020939093013593505050565b600060c08284031215611f4757600080fd5b50919050565b60008060008060008060a08789031215611f6657600080fd5b611f6f87611eef565b9550611f7d60208801611eef565b9450604087013567ffffffffffffffff80821115611f9a57600080fd5b818901915089601f830112611fae57600080fd5b813581811115611fbd57600080fd5b8a6020828501011115611fcf57600080fd5b60208301965080955050606089013593506080890135915080821115611ff457600080fd5b5061200189828a01611f35565b9150509295509295509295565b60006020828403121561202057600080fd5b610ffe82611eef565b6020808252825182820181905260009190848201906040850190845b8181101561206157835183529284019291840191600101612045565b50909695505050505050565b6000806040838503121561208057600080fd5b8235915061209060208401611eef565b90509250929050565b8b81526001600160a01b038b811660208301528a8116604083015289166060820152610160608082018190526000906120d48382018b611d76565b90508860a08401528760c08401526120eb87611dd2565b8660e08401526120fa86611dd2565b856101008401528281036101208401526121148186611d76565b90508281036101408401526121298185611d76565b9e9d5050505050505050505050505050565b600181811c9082168061214f57607f821691505b602082108103611f4757634e487b7160e01b600052602260045260246000fd5b634e487b7160e01b600052601160045260246000fd5b808201808211156121985761219861216f565b92915050565b6000600182016121b0576121b061216f565b5060010190565b6000602082840312156121c957600080fd5b813560048110610ffe57600080fd5b6000808335601e198436030181126121ef57600080fd5b83018035915067ffffffffffffffff82111561220a57600080fd5b60200191503681900382131561221f57600080fd5b9250929050565b634e487b7160e01b600052604160045260246000fd5b601f821115611ca057600081815260208120601f850160051c810160208610156122635750805b601f850160051c820191505b81811015610dcc5782815560010161226f565b815167ffffffffffffffff81111561229c5761229c612226565b6122b0816122aa845461213b565b8461223c565b602080601f8311600181146122e557600084156122cd5750858301515b600019600386901b1c1916600185901b178555610dcc565b600085815260208120601f198616915b82811015612314578886015182559484019460019091019084016122f5565b50858210156123325787850151600019600388901b60f8161c191681555b5050505050600190811b01905550565b606081528360608201528385608083013760006080858301015260006080601f19601f870116830101905083602083015261237c83611dd2565b82604083015295945050505050565b60208082526024908201527f4f6e6c792063726561746f722063616e20706572666f726d20746869732061636040820152633a34b7b760e11b606082015260800190565b6020808252601290820152714b656570206973206e6f742061637469766560701b604082015260600190565b60208082526013908201527212d9595c08191bd95cc81b9bdd08195e1a5cdd606a1b604082015260600190565b818103818111156121985761219861216f565b634e487b7160e01b600052603260045260246000fd5b634e487b7160e01b600052603160045260246000fdfea2646970667358221220f059b156431db4e8b276cb6c2616c3dd7ca954d2cbb17e3ff181231d3aa7834d64736f6c63430008140033",
  "linkReferences": {},
  "deployedLinkReferences": {}
}